S00A000049432E737265638E
S113000020C05DC1AFC638C037C036C035C034C0AB
S113001033C032C031C030C02FC02EC02DC02CC060
S11300202BC02AC029C081C184C187C18AC18DC1A6
S113003090C193C1C8C6C9C6CAC6CBC6CCC6CDC6B4
S1130040CEC611241FBECFE5D4E0DEBFCDBF11E084
S1130050A0E6B0E0ECE2FEE002C005900D92AE38FE
S1130060B107D9F721E0AEE8B1E001C01D92AE3886
S1130070B207E1F7C6D6D8C6C3CF84B38F6784BBB3
S113008085B3817085BB089589EF90E00197F1F7FE
S113009000C00000AD98AE988CE085BBAC9AE1EE50
S11300A0F4E03197F1F700C00000AC98E9EFF0E01C
S11300B03197F1F700C00000AD98AE9885BBAC9ABB
S11300C0E1EEF4E03197F1F700C00000AC98E9EFFD
S11300D0F0E03197F1F700C00000AD98AE9885BB11
S11300E0AC9A81EE94E00197F1F700C00000AC985F
S11300F0E9EFF0E03197F1F700C00000AD98AE9859
S113010084E085BBAC9A81EE94E00197F1F700C0DE
S11301100000AC98089595B3907F95BB982F929565
S11301209F70492F4470392F3270292F217055B395
S11301309695969596954695942B952B330F932BE0
S1130140220F220F220F922B95BBAD98AE98AC9A3A
S1130150E1EEF4E03197F1F700C00000AC9895B3FC
S1130160907F95BB382F3470282F2270982F917070
S113017045B383FB882780F93695832B842B220F84
S1130180822B990F990F990F892B85BBAD98AE9847
S1130190AC9A81EE94E00197F1F700C00000AC98AE
S11301A008956BDF8BE49DE10197F1F700C0000037
S11301B06BDF89EF90E00197F1F700C0000088E25F
S11301C0AADF81E0A8DF86E0A6DF8EE0A4DF80E876
S11301D0A2DF0895982F92959F7025B3207F25BBA9
S11301E0492F4470392F3270292F217055B39695B9
S11301F0969596954695942B952B330F932B220F1A
S1130200220F220F922B95BBAD9AAE98AC9AE1EED9
S1130210F4E03197F1F700C00000AC9895B3907FFB
S113022095BB382F3470282F2270982F917045B3C6
S113023083FB882780F93695832B842B220F822B0E
S1130240990F990F990F892B85BBAD9AAE98AC9AEB
S113025081EE94E00197F1F700C00000AC98089596
S113026081E059DF089580E856DF0895CF93DF9346
S1130270EC018881882329F02196ACDF89918111D2
S1130280FCCFDF91CF910895823069F018F481306A
S113029031F00895833059F0843069F008958FE780
S11302A0860F39DF08958FEB860F35DF089583E9D4
S11302B0860F31DF089583ED860F2DDF08951F9299
S11302C00F920FB60F9211242F933F934F935F9386
S11302D06F937F938F939F93AF93BF93EF93FF930A
S11302E0809160008F5F80936000BADF62E081E0FC
S11302F0CBDF8091600095E2899F212D1124982FF6
S1130300921B9695920F96959695292F220F220F60
S1130310220F291BE82FE21B8E2F90E087309105D6
S1130320F8F4FC01ED5EFF4F099481E690E09EDF56
S113033017C08EE690E09ADF13C08AE790E096DF5C
S11303400FC086E890E092DF0BC082E990E08EDF78
S113035007C08DE990E08ADF03C08AEA90E086DF77
S1130360FF91EF91BF91AF919F918F917F916F9189
S11303705F914F913F912F910F900FBE0F901F905F
S11303801895BB9ABA9AB998C198B89A8F9A8E98C8
S11303909698BE9ABF9A8D989598889A899A8C98BF
S11303A094980895BB98BA9AB99AC398B8988F9AB2
S11303B08E9AC098BE98BF9A8D9AC6988898899A42
S11303C08C9A90980895BB9ABA9828B348B381E060
S11303D090E0BC0102C0660F771F2A95E2F79B01EB
S11303E020953095242328BBB99AB89828B348B3EC
S11303F0BC0102C0660F771F2A95E2F79B01209586
S11304003095242328BB8F9A8E9822B342B3BC0123
S113041002C0660F771F2A95E2F79B01209530955D
S1130420242322BBBF9A8D9822B342B3BC0102C0DD
S1130430660F771F2A95E2F79B01209530952423B8
S113044022BB8C9ABE9828B348B3BC0102C0660F85
S1130450771F2A95E2F79B0120953095242328BB2A
S1130460889A899832B322B302C0880F991F3A95AB
S1130470E2F780959095822382BB08954230A1F0E3
S113048018F4413031F008954330C9F0443011F18B
S11304900895813011F4C39A01C0C398613011F4F6
S11304A0C29A0895C2980895813011F4C09A01C087
S11304B0C098613011F4979A0895979808958130FF
S11304C011F4C69A01C0C698613011F4C79A089510
S11304D0C7980895813011F4909A01C090986130C2
S11304E011F4919A0895919808954230A1F018F466
S11304F0413031F008954330C9F0443011F108958A
S1130500813011F4C29A01C0C298613011F4C19AC9
S11305100895C1980895813011F4979A01C097986D
S1130520613011F4969A089596980895813011F4E3
S1130530959A01C09598613011F4C79A0895C798A7
S11305400895813011F4949A01C09498613011F4A3
S1130550919A0895919808956330C1F028F4613018
S113056049F0623069F008956530E1F0A8F0663032
S1130570F9F00895813011F4C39A0895C398089549
S1130580813011F4C19A0895C1980895813011F40D
S1130590979A089597980895813011F4C79A089509
S11305A0C7980895813011F4949A08959498089501
S11305B0813011F4909A089590980895823069F0EA
S11305C018F4813031F017C0833061F0843079F051
S11305D012C086B386958170089580B386FB882700
S11305E080F9089580B385FB882780F9089580B346
S11305F082958170089580E00895823071F018F436
S1130600813031F015C0833059F0843071F010C05E
S113061086B383FB882780F9089586B38170089593
S113062086B386FB882780F9089580B38170089586
S113063080E008958330A1F028F4813049F08230BD
S113064061F021C08530B1F080F08630C1F01BC06C
S113065086B382FB882780F9089586B38170089554
S113066080B386FB882780F9089580B385FB8827AB
S113067080F9089586B386FB882780F9089580B3AE
S11306808695817008950895EF92FF920F931F93BA
S1130690CF93DF93E82EF62E142FD22F402F60E055
S11306A080E0ECDE8DEE92E00197F1F700C00000EF
S11306B0802F84DFC1E08E11C0E0402F61E080E034
S11306C0DDDE8DEE92E00197F1F700C00000802F8F
S11306D075DF8F1101C0CF5F402F60E081E0CEDE77
S11306E08DEE92E00197F1F700C00000802F66DFE5
S11306F0811301C0CF5F402F61E081E0BFDE8DEE4A
S113070092E00197F1F700C00000802F57DF8D13AE
S113071001C0CF5F402F60E080E0B0DE8DEE92E05C
S11307200197F1F700C000008C2FDF91CF911F914A
S11307300F91FF90EF900895EF92FF920F931F9304
S1130740CF93DF93E82EF62E142FD22F402F60E0A4
S113075080E0CBDE8DEE92E00197F1F700C000005F
S1130760802F4BDFC1E08E11C0E0402F61E080E0BC
S1130770BCDE8DEE92E00197F1F700C00000802FFF
S11307803CDF8F1101C0CF5F402F60E081E0ADDE20
S11307908DEE92E00197F1F700C00000802F2DDF6D
S11307A0811301C0CF5F402F61E081E09EDE8DEEBA
S11307B092E00197F1F700C00000802F1EDF8D1337
S11307C001C0CF5F402F60E080E08FDE8DEE92E0CD
S11307D00197F1F700C000008C2FDF91CF911F919A
S11307E00F91FF90EF9008950F931F93CF93DF9392
S11307F0082F162FC42F642F80E0AEDE8DEE92E01A
S11308000197F1F700C000008C2F14DFD1E08013B2
S1130810D0E06C2F81E0A0DE8DEE92E00197F1F73D
S113082000C000008C2F06DF811301C0DF5F6C2F36
S113083080E092DE8DEE92E00197F1F700C00000B7
S11308408D2FDF91CF911F910F910895EF92FF9219
S11308500F931F93CF93DF9382EB90E007DD62E069
S113086082E012DDB0DD41E060E081E0BDDFE82E32
S113087042E060E081E0B8DFC1E0823009F0C0E02E
S113088043E060E081E0B0DFD1E0823009F0D0E005
S113089044E060E081E0A8DF11E0823009F010E07C
S11308A045E060E081E0A0DF01E0823009F000E093
S11308B046E060E081E098DFFF24F394823009F0A1
S11308C0F12C82E0E81234C0C13059F5D13049F539
S11308D0113039F5013029F581E0F81222C08EEB90
S11308E090E0C4DC29C0C13019F48BEC90E0BEDC8C
S11308F0D13019F48DEC90E0B9DC113019F48FEC9F
S113090090E0B4DC013019F481ED90E0AFDC81E0DB
S1130910F81203C083ED90E0A9DC87EC90E0A6DC3C
S11309200BC085ED90E0A2DC8BED90E09FDCDBCF8B
S113093085ED90E09BDCD7CFDF91CF911F910F9194
S1130940FF90EF9008951F93CF93DF93C62FD42F7A
S1130950122F813059F5613081F5413071F5213024
S113096061F58EEB90E082DC2FC0C11122C0D11161
S113097020C011111EC08DED90E078DC25C0C1307F
S113098019F48BEC90E072DCD13019F48DEC90E02A
S11309906DDC113019F48FEC90E068DC87EC90E0AA
S11309A065DC12C085ED90E061DCE9CF8823E9F2D3
S11309B0F9CF85ED90E05ADCE2CF85ED90E056DC8E
S11309C08BED90E053DCDBCFDF91CF911F91089545
S11309D00F931F93CF93DF9386EE90E047DC62E0A2
S11309E082E052DCCEDC01E021E040E060E080E027
S11309F04BDEC82F02E021E040E060E080E044DE0E
S1130A00D82F03E021E040E060E080E03DDE182FD5
S1130A1004E021E040E060E080E036DE21E0843064
S1130A2009F020E041E0143009F040E061E0D43006
S1130A3009F060E081E0C43009F080E084DFDF91F8
S1130A40CF911F910F9108950F931F93CF93DF932D
S1130A5082EF90E00BDC62E082E016DC92DC01E0E5
S1130A6021E041E061E080E00FDEC82F02E021E0F8
S1130A7041E061E080E008DED82F03E021E041E0BE
S1130A8061E080E001DE182F04E021E041E061E054
S1130A9080E0FADD21E0843009F020E041E0143008
S1130AA009F040E061E0D43009F060E081E0C43056
S1130AB009F080E048DFDF91CF911F910F910895F5
S1130AC00F931F93CF93DF935CDC8DEF90E0CEDB2D
S1130AD062E082E0D9DB01E020E041E061E080E017
S1130AE0D3DDC82F02E020E041E061E080E0CCDD0E
S1130AF0D82F03E020E041E061E080E0C5DD182F5D
S1130B0004E020E041E061E080E0BEDD21E08430EB
S1130B1009F020E041E0143009F040E061E0D43015
S1130B2009F060E081E0C43009F080E00CDFDF917F
S1130B30CF911F910F9108950F931F93CF93DF933C
S1130B4020DC89E091E092DB62E082E09DDB01E061
S1130B5020E041E061E081E097DDC82F02E020E081
S1130B6041E061E081E090DDD82F03E020E041E046
S1130B7061E081E089DD182F04E020E041E061E0DC
S1130B8081E082DD21E0843009F020E041E014308E
S1130B9009F040E061E0D43009F060E081E0C43065
S1130BA009F080E0D0DEDF91CF911F910F9108957D
S1130BB00F931F93CF93DF93F5DB86E191E056DB30
S1130BC062E082E061DB01E020E040E060E081E09F
S1130BD0B3DDC82F02E020E040E060E081E0ACDD5E
S1130BE0D82F03E020E040E060E081E0A5DD182F8D
S1130BF004E020E040E060E081E09EDD21E084301C
S1130C0009F020E041E0143009F040E061E0D43024
S1130C1009F060E081E0C43009F080E094DEDF9107
S1130C20CF911F910F9108951BDB62E081E02CDBD3
S1130C3082E291E01BDB62E082E026DB8FE291E05E
S1130C4015DB08950F939DDB01E021E040E060E0B7
S1130C5080E01ADD8430A1F486EE90E007DB62E0E8
S1130C6082E012DB8CE391E001DB2FE382E49FE07E
S1130C70215080409040E1F700C00000D5DF70C0F3
S1130C8001E021E041E061E080E0FEDC8430A1F499
S1130C9082EF90E0EBDA62E082E0F6DA88E491E059
S1130CA0E5DA2FE382E49FE0215080409040E1F7B1
S1130CB000C00000B9DF54C001E020E041E061E081
S1130CC080E0E2DC8430A1F48DEF90E0CFDA62E0E2
S1130CD082E0DADA83E591E0C9DA2FE382E49FE087
S1130CE0215080409040E1F700C000009DDF38C0F3
S1130CF001E020E041E061E081E0C6DC8430A1F461
S1130D0089E091E0B3DA62E082E0BEDA8FE591E057
S1130D10ADDA2FE382E49FE0215080409040E1F778
S1130D2000C0000081DF1CC03DDB83ED90E3019730
S1130D30F1F700C0000001E020E040E060E081E065
S1130D40FBDC843051F486E191E090DA62E082E0E9
S1130D509BDA8CE691E08ADA03C082EB90E086DAD3
S1130D600F9108951F920F920FB60F9211242F9393
S1130D703F934F935F936F937F938F939F93AF931F
S1130D80BF93EF93FF936CDA62E081E07DDA8091A8
S1130D90600095E2899F212D1124982F921B96952E
S1130DA0920F96959695292F220F220F220F291B19
S1130DB0E82FE21B8E2F90E08730910588F4FC0128
S1130DC0E65EFF4F0994B8DE0BC0F2DE09C03EDDDB
S1130DD007C0FEDD05C038DE03C072DE01C032DFAD
S1130DE0FF91EF91BF91AF919F918F917F916F91FF
S1130DF05F914F913F912F910F900FBE0F901F90D5
S1130E0018958BB7806C8BBF85B7856085BF789448
S1130E10C8D929DA88E791E029DA62E082E034DA95
S10F0E2082E891E023DAFFCFF894FFCFC2
S1130E2CFF37343030204E414E4420494300373490
S1130E3C3032204E4F522049430037343034204E48
S1130E4C4F54204943003734303820414E44204914
S1130E5C430037343332204F52204943003734385F
S1130E6C362045584F522049430046696E64204948
S1130E7C430049432037343034204E4F5400416CE6
S1130E8C6C204761746573204F4B0032003300347F
S1130E9C0035003600476174652000310057726FCD
S1130EAC6E67204943004943203734303820414E83
S1130EBC440049432037343332204F5200494320F5
S1130ECC3734383620584F520049432037343030A9
S1130EDC204E414E440049432037343032204E4F8B
S1130EEC5200477420313A312C322D492F500020B6
S1130EFC202020202020332D4F2F500054776F209A
S1130F0C492F7020416E640054776F20492F702054
S1130F1C4F520054776F20492F7020584F52005471
S1130F2C776F20492F70204E414E440054776F2028
S1130F3C492F70204E4F5200202044696769746118
S1110F4C6C00204943205465737465720000E4
S9030000FC
